:100000000C942A000C9447000C9447000C94470071
:100010000C9447000C9447000C9447000C94470044
:100020000C9447000C9447000C9447000C94470034
:100030000C9447000C9447000C9447000C94470024
:100040000C9447000C9447000C9447000C94470014
:100050000C94470011241FBECFE5D8E0DEBFCDBF12
:1000600010E0A0E6B0E0E4E5FAE102C005900D92F0
:10007000A238B107D9F710E0A2E8B0E001C01D92A4
:10008000A338B107E1F70E94C00C0C94280D0C9422
:100090000000EF92FF920F931F937B018C0120E0F1
:1000A00030E040E05FE40E94490388238CF0C801FF
:1000B000B70120E030E040E05FE40E94C1010E940F
:1000C000A9039B01AC01205030404040504806C07D
:1000D000C801B7010E94A9039B01AC01B901CA0183
:1000E0001F910F91FF90EF900895A0E0B0E0EBE733
:1000F000F0E00C94F10CDC012B01FA019C919230A0
:1001000008F439C1EB018881823008F433C194309E
:1001100069F4843009F02FC111969C91119789815F
:10012000981709F428C1A0E6B0E025C1843009F48D
:1001300021C18230A9F4923009F01DC19A01AD01AC
:1001400088E0EA010990AE01E90109929E0181501F
:10015000C1F7E201898111969C918923818308C1AD
:10016000923009F407C112962D903C901397EB0141
:100170008A819B811496AD90BD90CD90DC901797AD
:10018000EC80FD800E811F819101281B390BB90184
:1001900037FF04C066277727621B730B6032710537
:1001A0000CF061C0121613066CF537014801062EDB
:1001B00004C096948794779467940A94D2F721E0C8
:1001C00030E040E050E004C0220F331F441F551FB1
:1001D0006A95D2F721503040404050402E213F21B7
:1001E00040235123211531054105510521F021E01E
:1001F00030E040E050E079018A01E628F72808293C
:1002000019293CC0232BD1F1260E371E350146019A
:10021000062E04C096948794779467940A94D2F734
:1002200021E030E040E050E004C0220F331F441FC3
:10023000551F6A95D2F721503040404050402A2146
:100240003B214C215D21211531054105510521F04E
:1002500021E030E040E050E059016A01A628B728CB
:10026000C828D9280BC0821593052CF01C01AA249C
:10027000BB24650103C0EE24FF24870111969C91E5
:10028000D20111968C91981709F445C0992339F041
:10029000A80197012A193B094C095D0906C0A6016E
:1002A00095012E193F09400B510B57FD08C01182D3
:1002B0003382228224833583468357831DC081E0A5
:1002C00081833382228288279927DC01821B930B4A
:1002D000A40BB50B84839583A683B7830DC0220F2F
:1002E000331F441F551F24833583468357838281E0
:1002F000938101979383828324813581468157813D
:10030000DA01C9010197A109B1098F5F9F4FAF4F72
:10031000BF4328F30BC0918333822282EA0CFB1C7B
:100320000C1D1D1DE482F5820683178383E0808304
:10033000248135814681578157FF1AC0C901AA27F8
:1003400097FDA095BA2F81709070A070B0705695EF
:10035000479537952795822B932BA42BB52B848318
:100360009583A683B7838281938101969383828349
:10037000DF0101C0D201CD01CDB7DEB7E2E10C94BF
:100380000D0DA0E2B0E0E7ECF1E00C94FD0C698308
:100390007A838B839C832D833E834F835887E9E048
:1003A000EE2EF12CEC0EFD1ECE010196B7010E943F
:1003B000D2048E010F5E1F4FCE010596B8010E9438
:1003C000D2048A8991E089278A8BC701B801AE01DE
:1003D000475E5F4F0E9475000E94FD03A096E6E015
:1003E0000C94190DA0E2B0E0E8EFF1E00C94FD0CE4
:1003F00069837A838B839C832D833E834F835887C5
:10040000F9E0EF2EF12CEC0EFD1ECE010196B701A6
:100410000E94D2048E010F5E1F4FCE010596B801D7
:100420000E94D204C701B801AE01475E5F4F0E942F
:1004300075000E94FD03A096E6E00C94190DA0E261
:10044000B0E0E5E2F2E00C94F10C69837A838B83EF
:100450009C832D833E834F835887CE010196BE0136
:10046000675F7F4F0E94D204CE010596BE016F5E8A
:100470007F4F0E94D2049985923088F0898982301A
:10048000C8F0943019F4823051F404C0843029F457
:10049000923081F480E690E0C6C0923049F420E0CA
:1004A0009A858A89981321E02A87CE010996BBC0D4
:1004B000823049F420E09A858A89981321E02A8BBA
:1004C000CE014196B0C02D843E844F8458886D88FB
:1004D0007E888F88988CEE24FF248701AA24BB2471
:1004E000650140E050E060E070E0E0E0F0E0C10174
:1004F00081709070892BE9F0E60CF71C081D191D1E
:100500009A01AB012A0D3B1D4C1D5D1D80E090E062
:10051000A0E0B0E0E614F7040805190520F481E036
:1005200090E0A0E0B0E0BA01A901480F591F6A1F8E
:100530007B1FAA0CBB1CCC1CDD1C97FE08C081E0F5
:1005400090E0A0E0B0E0A82AB92ACA2ADB2A3196B6
:10055000E032F10549F0660C771C881C991C569412
:10056000479437942794C3CFFA85EA892B893C892D
:100570008B859C85280F391F2E5F3F4F17C0CA01FE
:1005800081709070892B61F016950795F794E79428
:1005900080E090E0A0E0B0E8E82AF92A0A2B1B2BC3
:1005A00076956795579547952F5F3F4F77FDE7CF36
:1005B0000CC0440F551F661F771F17FD4160EE0CDE
:1005C000FF1C001F111F21503040403090E05907A0
:1005D00090E0690790E4790760F32B8F3C8FDB0193
:1005E000CA018F779070A070B07080349105A1051A
:1005F000B10561F447FD0AC0E114F10401051105DC
:1006000029F0405C5F4F6F4F7F4F40781A8EFE1786
:1006100011F081E08A8F4D8F5E8F6F8F78A383E01A
:10062000898FCE0149960E94FD03A096E2E10C94C9
:100630000D0DA8E1B0E0EFE1F3E00C94FD0C69834F
:100640007A838B839C832D833E834F83588789E0F5
:10065000E82EF12CEC0EFD1ECE010196B7010E9492
:10066000D2048E010F5E1F4FCE010596B8010E9485
:10067000D2048985823040F08989823028F0C70110
:10068000B8010E944A0501C08FEF6896E6E00C941D
:10069000190DA8E1B0E0EFE4F3E00C94FD0C6983E0
:1006A0007A838B839C832D833E834F83588789E095
:1006B000E82EF12CEC0EFD1ECE010196B7010E9432
:1006C000D2048E010F5E1F4FCE010596B8010E9425
:1006D000D2048985823040F08989823028F0C701B0
:1006E000B8010E944A0501C08FEF6896E6E00C94BD
:1006F000190DA8E1B0E0EFE7F3E00C94FD0C69837D
:100700007A838B839C832D833E834F83588789E034
:10071000E82EF12CEC0EFD1ECE010196B7010E94D1
:10072000D2048E010F5E1F4FCE010596B8010E94C4
:10073000D2048985823040F08989823028F0C7014F
:10074000B8010E944A0501C081E06896E6E00C9479
:10075000190DACE0B0E0EFEAF3E00C94010D698311
:100760007A838B839C83CE010196BE016B5F7F4FA2
:100770000E94D2048D81823061F1823050F1843048
:1007800021F48E81882351F12EC02F81388537FDC9
:1007900020C06E812F3131051CF06623F9F023C093
:1007A0008EE190E0821B930B29853A854B855C8511
:1007B00004C056954795379527958A95D2F76623B5
:1007C000B1F050954095309521953F4F4F4F5F4F79
:1007D0000EC020E030E040E050E009C02FEF3FEFD6
:1007E0004FEF5FE704C020E030E040E050E8B9019F
:1007F000CA012C96E2E00C941D0DDF92EF92FF925D
:100800000F931F93FC01E480F58006811781D1804E
:100810008081823048F480E090E0A0E1B0E0E82AF6
:10082000F92A0A2B1B2BA5C0843009F49FC0823003
:1008300021F4EE24FF24870105C0E114F104010531
:10084000110519F4E0E0F0E096C0628173819FEF3A
:10085000623879070CF05BC022E83FEF261B370BAC
:100860002A3131052CF020E030E040E050E02AC091
:10087000B801A701022E04C0769567955795479554
:100880000A94D2F781E090E0A0E0B0E004C0880FC5
:10089000991FAA1FBB1F2A95D2F70197A109B10979
:1008A0008E219F21A023B1230097A105B10521F03E
:1008B00081E090E0A0E0B0E09A01AB01282B392B59
:1008C0004A2B5B2BDA01C9018F779070A070B07052
:1008D00080349105A105B10539F427FF09C0205CDA
:1008E0003F4F4F4F5F4F04C0215C3F4F4F4F5F4F13
:1008F000E0E0F0E02030A0E03A07A0E04A07A0E402
:100900005A0710F0E1E0F0E079018A0127C0603871
:10091000710564F5FB01E158FF4FD801C7018F77DE
:100920009070A070B07080349105A105B10539F4C4
:10093000E7FE0DC080E490E0A0E0B0E004C08FE3EB
:1009400090E0A0E0B0E0E80EF91E0A1F1B1F17FFA1
:1009500005C016950795F794E794319687E01695AC
:100960000795F794E7948A95D1F705C0EE24FF2404
:100970008701EFEFF0E06E2F679566276795902F60
:100980009F77D794DD24D7948E2F8695492F462BB9
:10099000582F5D29B701CA011F910F91FF90EF9069
:1009A000DF900895FC01DB01408151812281622F9B
:1009B0006F7770E0221F2227221F9381892F880FD3
:1009C000822B282F30E0991F9927991F11969C930D
:1009D000119721153105A9F54115510561057105DD
:1009E00011F482E037C082E89FEF13969C938E93B8
:1009F00012979A01AB0167E0220F331F441F551F66
:100A00006A95D1F783E08C930DC0220F331F441FEA
:100A1000551F12968D919C911397019713969C9355
:100A20008E931297203080E0380780E0480780E4FA
:100A3000580758F314962D933D934D935C93179755
:100A400008952F3F310579F4411551056105710570
:100A500019F484E08C93089564FF03C081E08C93C3
:100A600012C01C9210C02F57304013963C932E9307
:100A7000129783E08C9387E0440F551F661F771F02
:100A80008A95D1F7706414964D935D936D937C9322
:100A9000179708951F93DC01FB019C91923008F495
:100AA00047C08081823008F443C0943051F41196DD
:100AB0001C91843099F58181682F70E0611B710968
:100AC0003FC0843021F0923031F48230B9F181811D
:100AD000882389F12DC011961C9111978230F1F075
:100AE00081811817D9F412962D913C911397828128
:100AF00093818217930794F028173907BCF0149656
:100B00008D919D910D90BC91A02D248135814681C0
:100B10005781281739074A075B0718F4112341F05A
:100B20000AC082179307A407B50740F4112319F0F0
:100B300061E070E005C06FEF7FEF02C060E070E041
:100B4000CB011F910895DF93CF93CDB7DEB72D97DB
:100B50000FB6F894DEBF0FBECDBF9D838C837F831D
:100B60006E838C819D81009709F455C21B824AC215
:100B70008B81882F90E09C01220F331F220F331F9F
:100B80008C819D81FC01E20FF31F80819AE0692F27
:100B90000E94E50C892F8A838B81882F90E09C012D
:100BA000220F331F220F331F8C819D81FC01E20F26
:100BB000F31F80819AE0692F0E94E50C89838B8165
:100BC000882F90E09C01220F331F220F331F8C814E
:100BD0009D81FC01E20FF31F8281882389F08B81C4
:100BE000882F90E09C01220F331F220F331F8C812E
:100BF0009D81FC01E20FF31F8281813009F0FFC16A
:100C00008981282F30E03D872C876C857D85623077
:100C10007105D1F18C859D858330910534F42C8547
:100C20003D852130310571F094C06C857D85633040
:100C3000710509F44BC08C859D858430910509F4BC
:100C400067C087C0AAE3B0E0EAE3F0E040818B81AF
:100C5000882F90E09C01220F331F220F331F8C81BD
:100C60009D81FC01E20FF31F8281282F30E08A81F1
:100C7000882F90E0B90102C0660F771F8A95E2F7CE
:100C8000CB01842B8C9365C0A7E3B0E0E7E3F0E0F1
:100C900040818B81882F90E09C01220F331F220F0F
:100CA000331F8C819D81FC01E20FF31F8281282F6D
:100CB00030E08A81882F90E0B90102C0660F771F6B
:100CC0008A95E2F7CB01842B8C9343C0A4E3B0E078
:100CD000E4E3F0E040818B81882F90E09C01220FBB
:100CE000331F220F331F8C819D81FC01E20FF31F04
:100CF0008281282F30E08A81882F90E0B90102C0DC
:100D0000660F771F8A95E2F7CB01842B8C9321C065
:100D1000A1E3B0E0E1E3F0E040818B81882F90E037
:100D20009C01220F331F220F331F8C819D81FC01F8
:100D3000E20FF31F8281282F30E08A81882F90E014
:100D4000B90102C0660F771F8A95E2F7CB01842BA9
:100D50008C938B81882F90E09C01220F331F220FF0
:100D6000331F8C819D81FC01E20FF31F8181882359
:100D700089F08B81882F90E09C01220F331F220F76
:100D8000331F8C819D81FC01E20FF31F8181813033
:100D900009F035C18981282F30E03B872A876A8591
:100DA0007B8562307105D1F18A859B858330910501
:100DB00034F42A853B852130310571F094C06A8571
:100DC0007B856330710509F44BC08A859B8584302F
:100DD000910509F467C087C0ABE3B0E0EBE3F0E056
:100DE00040818B81882F90E09C01220F331F220FBE
:100DF000331F8C819D81FC01E20FF31F8181282F1D
:100E000030E08A81882F90E0B90102C0660F771F19
:100E10008A95E2F7CB01842B8C9365C0A8E3B0E000
:100E2000E8E3F0E040818B81882F90E09C01220F65
:100E3000331F220F331F8C819D81FC01E20FF31FB2
:100E40008181282F30E08A81882F90E0B90102C08B
:100E5000660F771F8A95E2F7CB01842B8C9343C0F2
:100E6000A5E3B0E0E5E3F0E040818B81882F90E0DE
:100E70009C01220F331F220F331F8C819D81FC01A7
:100E8000E20FF31F8181282F30E08A81882F90E0C4
:100E9000B90102C0660F771F8A95E2F7CB01842B58
:100EA0008C9321C0A2E3B0E0E2E3F0E040818B81CB
:100EB000882F90E09C01220F331F220F331F8C815B
:100EC0009D81FC01E20FF31F8181282F30E08A8190
:100ED000882F90E0B90102C0660F771F8A95E2F76C
:100EE000CB01842B8C938B81882F90E09C01220F67
:100EF000331F220F331F8C819D81FC01E20FF31FF2
:100F00008381882309F07BC08B81882F90E09C012E
:100F1000220F331F220F331F8C819D81FC01E20FB2
:100F2000F31F8281882309F06AC08981282F30E06D
:100F300039872887688579856230710549F1888508
:100F400099858330910534F4288539852130310520
:100F500061F055C0688579856330710561F18885D8
:100F6000998584309105D1F14AC0ABE3B0E0EBE361
:100F7000F0E040818A81282F30E081E090E0022E6D
:100F800002C0880F991F0A94E2F7842B8C9337C014
:100F9000A8E3B0E0E8E3F0E040818A81282F30E068
:100FA00081E090E0022E02C0880F991F0A94E2F7B8
:100FB000842B8C9324C0A5E3B0E0E5E3F0E040810E
:100FC0008A81282F30E081E090E0022E02C0880F55
:100FD000991F0A94E2F7842B8C9311C0A2E3B0E02E
:100FE000E2E3F0E040818A81282F30E081E090E068
:100FF00002C0880F991F2A95E2F7842B8C938B816E
:101000008F5F8B838B81282F30E08E819F81281703
:1010100039070CF4ADCD2D960FB6F894DEBF0FBE98
:10102000CDBFCF91DF910895DF93CF93CDB7DEB7DA
:101030002A970FB6F894DEBF0FBECDBF8B836C83AB
:101040008B819AE0692F0E94E50C8A838B819AE05C
:10105000692F0E94E50C892F89838C81282F30E02D
:101060003A87298789859A85009709F476C029856A
:101070003A852130310509F0E4C08A81282F30E01B
:1010800038872F838F8198858230910551F12F8188
:1010900038852330310534F48F819885813091056E
:1010A00061F0CFC02F8138852330310571F18F81F8
:1010B000988584309105E9F1C4C0ABE3B0E0EBE37F
:1010C000F0E08081482F8981282F30E081E090E096
:1010D000022E02C0880F991F0A94E2F7842B8C938A
:1010E000B0C0A8E3B0E0E8E3F0E08081482F898158
:1010F000282F30E081E090E0022E02C0880F991F77
:101100000A94E2F7842B8C939CC0A5E3B0E0E5E35E
:10111000F0E08081482F8981282F30E081E090E045
:10112000022E02C0880F991F0A94E2F7842B8C9339
:1011300088C0A2E3B0E0E2E3F0E08081482F89813B
:10114000282F30E081E090E0022E02C0880F991F26
:101150000A94E2F7842B8C9374C08A81282F30E0A4
:101160003E832D838D819E818230910561F12D8199
:101170003E812330310534F48D819E81813091058B
:1011800069F05FC02D813E812330310589F18D8169
:101190009E818430910509F440C053C0ABE3B0E0B8
:1011A000EBE3F0E08081482F8981282F30E081E057
:1011B00090E0022E02C0880F991F0A94E2F78095F2
:1011C00084238C933EC0A8E3B0E0E8E3F0E08081A4
:1011D000482F8981282F30E081E090E0022E02C064
:1011E000880F991F0A94E2F7809584238C9329C075
:1011F000A5E3B0E0E5E3F0E08081482F8981282F66
:1012000030E081E090E0022E02C0880F991F0A941E
:10121000E2F7809584238C9314C0A2E3B0E0E2E36C
:10122000F0E08081482F8981282F30E081E090E034
:10123000022E02C0880F991F0A94E2F7809584233A
:101240008C932A960FB6F894DEBF0FBECDBFCF9118
:10125000DF910895DF93CF93CDB7DEB727970FB611
:10126000F894DEBF0FBECDBF8B837D836C838B81F3
:101270009AE0692F0E94E50C8A838B819AE0692F9E
:101280000E94E50C892F89838A81282F30E03F83D3
:101290002E834E815F814230510559F18E819F81AD
:1012A0008330910534F42E813F812130310569F07E
:1012B0005BC04E815F814330510579F18E819F8102
:1012C0008430910509F43DC04FC0E9E3F0E080812E
:1012D000282F30E08981882F90E0A90102C0559520
:1012E00047958A95E2F7CA018170EC81FD81808380
:1012F0003BC0E6E3F0E08081282F30E08981882F31
:1013000090E0A90102C0559547958A95E2F7CA0178
:101310008170EC81FD81808327C0E3E3F0E0808170
:10132000282F30E08981882F90E0A90102C05595CF
:1013300047958A95E2F7CA018170EC81FD8180832F
:1013400013C0E0E3F0E08081282F30E08981882F0E
:1013500090E0A90102C0559547958A95E2F7CA0128
:101360008170EC81FD81808327960FB6F894DEBFF3
:101370000FBECDBFCF91DF910895DF93CF9300D003
:1013800000D0CDB7DEB789836A838981282F30E00A
:101390003C832B838B819C8182309105D9F02B81FA
:1013A0003C812330310534F48B819C81813091055F
:1013B00061F01EC02B813C812330310581F08B818F
:1013C0009C818430910581F013C0EBE3F0E08A81C9
:1013D00080830EC0E8E3F0E08A81808309C0E5E302
:1013E000F0E08A81808304C0E2E3F0E08A818083B8
:1013F0000F900F900F900F90CF91DF910895DF9392
:10140000CF9300D000D00F92CDB7DEB789837B8316
:101410006A838981282F30E03D832C838C819D81D4
:1014200082309105E9F02C813D812330310534F47F
:101430008C819D818130910561F026C02C813D8198
:1014400023303105A1F08C819D8184309105B1F06C
:101450001BC0EBE3F0E08081EA81FB81808314C054
:10146000E8E3F0E08081EA81FB8180830DC0E5E361
:10147000F0E08081EA81FB81808306C0E2E3F0E056
:101480008081EA81FB8180830F900F900F900F90F5
:101490000F90CF91DF910895DF93CF9300D000D0CC
:1014A0000F92CDB7DEB78B838B819AE0692F0E94B4
:1014B000E50C8A838B819AE0692F0E94E50C892FC5
:1014C00089838A81282F30E03D832C838C819D8104
:1014D0008230910551F12C813D812330310534F466
:1014E0008C819D818130910561F05AC02C813D81B4
:1014F0002330310571F18C819D8184309105E9F1B2
:101500004FC0ABE3B0E0EBE3F0E08081482F89818E
:10151000282F30E081E090E0022E02C0880F991F52
:101520000A94E2F784278C933BC0A8E3B0E0E8E399
:10153000F0E08081482F8981282F30E081E090E021
:10154000022E02C0880F991F0A94E2F784278C9319
:1015500027C0A5E3B0E0E5E3F0E08081482F898172
:10156000282F30E081E090E0022E02C0880F991F02
:101570000A94E2F784278C9313C0A2E3B0E0E2E37D
:10158000F0E08081482F8981282F30E081E090E0D1
:10159000022E02C0880F991F0A94E2F784278C93C9
:1015A0000F900F900F900F900F90CF91DF910895B3
:1015B000DF93CF93CDB7DEB766970FB6F894DEBF53
:1015C0000FBECDBF888B7A8B698B8889282F30E03E
:1015D0003E8B2D8B8D899E8982309105F1F02D896E
:1015E0003E892330310534F48D899E8981309105FF
:1015F00061F02AC02D893E8923303105B1F08D89F3
:101600009E8984309105C9F01FC09E01215F3F4F24
:101610008FE2B9010E942A0917C09E01215F3F4F46
:101620008EE2B9010E942A090FC09E01215F3F4F3F
:101630008DE2B9010E942A0907C09E01215F3F4F38
:101640008BE2B9010E942A098F85882309F0CFC057
:1016500080E090E0A0EAB1E48B879C87AD87BE87ED
:101660006B857C858D859E8520E030E04AE755E4DA
:101670000E941F02DC01CB018F839887A987BA875C
:101680006F81788589859A8520E030E040E85FE3C6
:101690000E94790388232CF481E090E09E838D835F
:1016A0003FC06F81788589859A8520E03FEF4FE7BD
:1016B00057E40E94190318164CF56B857C858D85BF
:1016C0009E8520E030E040E251E40E941F02DC01F0
:1016D000CB01BC01CD010E944900DC01CB019E83FE
:1016E0008D830FC080E991E09C838B838B819C81EB
:1016F0000197F1F79C838B838D819E8101979E8357
:101700008D838D819E81009769F714C06F817885E4
:1017100089859A850E944900DC01CB019E838D83D7
:101720008D819E819A83898389819A810197F1F7BE
:101730009A8389838889282F30E03C8B2B8B8B8977
:101740009C8982309105F1F02B893C892330310549
:1017500034F48B899C898130910561F02AC02B89F2
:101760003C8923303105B1F08B899C898430910507
:10177000C9F01FC09E01215F3F4F8FE2B9010E9457
:101780002A0917C09E01215F3F4F8EE2B9010E94D6
:101790002A090FC09E01215F3F4F8DE2B9010E94CF
:1017A0002A0907C09E01215F3F4F8BE2B9010E94C9
:1017B0002A098F85882399F480916800813031F45B
:1017C00010926800E989FA89108218C08091680037
:1017D0008823A1F4E989FA8981E080830FC0E9892F
:1017E000FA8981E0808381E08093680007C0E989FD
:1017F000FA8981E0808381E08093680066960FB665
:10180000F894DEBF0FBECDBFCF91DF910895DF9377
:10181000CF9300D00F92CDB7DEB789838981282F6F
:1018200030E03B832A838A819B8181309105D1F00E
:101830002A813B81223031052CF48A819B810097DB
:1018400061F01EC02A813B812230310581F08A81FE
:101850009B818330910581F013C080E161E00E949B
:1018600014080EC08FE061E00E94140809C08EE0E9
:1018700061E00E94140804C08BE161E00E9414083A
:101880000F900F900F90CF91DF910895DF93CF933A
:1018900000D00F92CDB7DEB789838981282F30E041
:1018A0003B832A838A819B8181309105D1F02A81F3
:1018B0003B81223031052CF48A819B81009761F0B5
:1018C0001EC02A813B812230310581F08A819B81B3
:1018D0008330910581F013C080E160E00E9414081C
:1018E0000EC08FE060E00E94140809C08EE060E046
:1018F0000E94140804C08BE160E00E9414080F905D
:101900000F900F90CF91DF910895DF93CF9300D088
:101910000F92CDB7DEB789838981282F30E03B83D2
:101920002A838A819B8181309105C9F02A813B817C
:10193000223031052CF48A819B81009761F01AC016
:101940002A813B812230310571F08A819B8183306D
:10195000910569F00FC080E10E944C0A0BC08FE036
:101960000E944C0A07C08EE00E944C0A03C08BE123
:101970000E944C0A0F900F900F90CF91DF91089525
:10198000DF93CF93CDB7DEB789E690E066E070E0F5
:101990000E94A30522E830E081E0B9010E94D80A44
:1019A00080918200882319F482E00E94070C22E8CB
:1019B00030E082E0B9010E94D80A80918200882339
:1019C00049F782E00E94460CE5CF991B79E004C0FC
:1019D000991F961708F0961B881F7A95C9F780956E
:1019E00008952F923F924F925F926F927F928F92C3
:1019F0009F92AF92BF92CF92DF92EF92FF920F939E
:101A00001F93CF93DF93CDB7DEB7CA1BDB0B0FB6A7
:101A1000F894DEBF0FBECDBF09942A883988488864
:101A20005F846E847D848C849B84AA84B984C884FA
:101A3000DF80EE80FD800C811B81AA81B981CE0FF1
:101A4000D11D0FB6F894DEBF0FBECDBFED010895D6
:041A5000F894FFCF38
:101A5400000000000000000001100001000F000160
:101A6400000E0001001B0001002B0000012D0000EE
:021A740001006F
:00000001FF
